{
  "address": "0xa53d56000D3bEa595Ea5b13F7dA928541B75a0E4",
  "abi": [
    {
      "inputs": [
        {
          "internalType": "address",
          "name": "_tokenA",
          "type": "address"
        },
        {
          "internalType": "address",
          "name": "_tokenB",
          "type": "address"
        }
      ],
      "stateMutability": "nonpayable",
      "type": "constructor"
    },
    {
      "inputs": [
        {
          "internalType": "address",
          "name": "owner",
          "type": "address"
        }
      ],
      "name": "OwnableInvalidOwner",
      "type": "error"
    },
    {
      "inputs": [
        {
          "internalType": "address",
          "name": "account",
          "type": "address"
        }
      ],
      "name": "OwnableUnauthorizedAccount",
      "type": "error"
    },
    {
      "anonymous": false,
      "inputs": [
        {
          "indexed": true,
          "internalType": "address",
          "name": "provider",
          "type": "address"
        },
        {
          "indexed": false,
          "internalType": "uint256",
          "name": "amountA",
          "type": "uint256"
        },
        {
          "indexed": false,
          "internalType": "uint256",
          "name": "amountB",
          "type": "uint256"
        }
      ],
      "name": "LiquidityAdded",
      "type": "event"
    },
    {
      "anonymous": false,
      "inputs": [
        {
          "indexed": true,
          "internalType": "address",
          "name": "provider",
          "type": "address"
        },
        {
          "indexed": false,
          "internalType": "uint256",
          "name": "amountA",
          "type": "uint256"
        },
        {
          "indexed": false,
          "internalType": "uint256",
          "name": "amountB",
          "type": "uint256"
        }
      ],
      "name": "LiquidityRemoved",
      "type": "event"
    },
    {
      "anonymous": false,
      "inputs": [
        {
          "indexed": true,
          "internalType": "address",
          "name": "previousOwner",
          "type": "address"
        },
        {
          "indexed": true,
          "internalType": "address",
          "name": "newOwner",
          "type": "address"
        }
      ],
      "name": "OwnershipTransferred",
      "type": "event"
    },
    {
      "anonymous": false,
      "inputs": [
        {
          "indexed": true,
          "internalType": "address",
          "name": "user",
          "type": "address"
        },
        {
          "indexed": false,
          "internalType": "uint256",
          "name": "amountIn",
          "type": "uint256"
        },
        {
          "indexed": false,
          "internalType": "uint256",
          "name": "amountOut",
          "type": "uint256"
        },
        {
          "indexed": false,
          "internalType": "string",
          "name": "direction",
          "type": "string"
        }
      ],
      "name": "Swapped",
      "type": "event"
    },
    {
      "inputs": [
        {
          "internalType": "uint256",
          "name": "amountA",
          "type": "uint256"
        },
        {
          "internalType": "uint256",
          "name": "amountB",
          "type": "uint256"
        }
      ],
      "name": "addLiquidity",
      "outputs": [],
      "stateMutability": "nonpayable",
      "type": "function"
    },
    {
      "inputs": [
        {
          "internalType": "address",
          "name": "_token",
          "type": "address"
        }
      ],
      "name": "getPrice",
      "outputs": [
        {
          "internalType": "uint256",
          "name": "",
          "type": "uint256"
        }
      ],
      "stateMutability": "view",
      "type": "function"
    },
    {
      "inputs": [],
      "name": "getReserves",
      "outputs": [
        {
          "internalType": "uint256",
          "name": "",
          "type": "uint256"
        },
        {
          "internalType": "uint256",
          "name": "",
          "type": "uint256"
        }
      ],
      "stateMutability": "view",
      "type": "function"
    },
    {
      "inputs": [],
      "name": "owner",
      "outputs": [
        {
          "internalType": "address",
          "name": "",
          "type": "address"
        }
      ],
      "stateMutability": "view",
      "type": "function"
    },
    {
      "inputs": [
        {
          "internalType": "uint256",
          "name": "amountA",
          "type": "uint256"
        },
        {
          "internalType": "uint256",
          "name": "amountB",
          "type": "uint256"
        }
      ],
      "name": "removeLiquidity",
      "outputs": [],
      "stateMutability": "nonpayable",
      "type": "function"
    },
    {
      "inputs": [],
      "name": "renounceOwnership",
      "outputs": [],
      "stateMutability": "nonpayable",
      "type": "function"
    },
    {
      "inputs": [
        {
          "internalType": "uint256",
          "name": "amountAIn",
          "type": "uint256"
        }
      ],
      "name": "swapAforB",
      "outputs": [],
      "stateMutability": "nonpayable",
      "type": "function"
    },
    {
      "inputs": [
        {
          "internalType": "uint256",
          "name": "amountBIn",
          "type": "uint256"
        }
      ],
      "name": "swapBforA",
      "outputs": [],
      "stateMutability": "nonpayable",
      "type": "function"
    },
    {
      "inputs": [],
      "name": "tokenA",
      "outputs": [
        {
          "internalType": "contract IERC20",
          "name": "",
          "type": "address"
        }
      ],
      "stateMutability": "view",
      "type": "function"
    },
    {
      "inputs": [],
      "name": "tokenB",
      "outputs": [
        {
          "internalType": "contract IERC20",
          "name": "",
          "type": "address"
        }
      ],
      "stateMutability": "view",
      "type": "function"
    },
    {
      "inputs": [
        {
          "internalType": "address",
          "name": "newOwner",
          "type": "address"
        }
      ],
      "name": "transferOwnership",
      "outputs": [],
      "stateMutability": "nonpayable",
      "type": "function"
    }
  ],
  "transactionHash": "0x2ca54021fe77b4d358f4b0bb712badf767286d2055efcbf0fb61237e541c4784",
  "args": [
    "0x426f78dDd5ad5e49Ef757862B81234Ee81Fcb0Be",
    "0xa49576A2e6F23807661F47971DF91C1069030e36"
  ],
  "numDeployments": 1,
  "solcInputHash": "78462f9f9de58da415b91e19007c31b0",
  "bytecode": "0x608060405234801561001057600080fd5b5060405161111238038061111283398101604081905261002f916100fc565b338061005557604051631e4fbdf760e01b81526000600482015260240160405180910390fd5b61005e81610090565b50600180546001600160a01b039384166001600160a01b0319918216179091556002805492909316911617905561012f565b600080546001600160a01b038381166001600160a01b0319831681178455604051919092169283917f8be0079c531659141344cd1fd0a4f28419497f9722a3daafe3b4186f6b6457e09190a35050565b80516001600160a01b03811681146100f757600080fd5b919050565b6000806040838503121561010f57600080fd5b610118836100e0565b9150610126602084016100e0565b90509250929050565b610fd48061013e6000396000f3fe608060405234801561001057600080fd5b50600436106100a95760003560e01c80638014a7aa116100715780638014a7aa146101395780638da5cb5b1461014c5780639cd441da1461015d5780639d7de6b314610170578063e4f1f70a14610183578063f2fde38b1461019657600080fd5b80630902f1ac146100ae5780630fc63d10146100d057806341976e09146100fb5780635f64b55b1461011c578063715018a61461012f575b600080fd5b6100b66101a9565b604080519283526020830191909152015b60405180910390f35b6001546100e3906001600160a01b031681565b6040516001600160a01b0390911681526020016100c7565b61010e610109366004610e31565b610297565b6040519081526020016100c7565b6002546100e3906001600160a01b031681565b610137610434565b005b610137610147366004610e61565b610448565b6000546001600160a01b03166100e3565b61013761016b366004610e7a565b6106ae565b61013761017e366004610e7a565b61082c565b610137610191366004610e61565b610a95565b6101376101a4366004610e31565b610cef565b6001546040516370a0823160e01b8152306004820152600091829182916001600160a01b0316906370a0823190602401602060405180830381865afa1580156101f6573d6000803e3d6000fd5b505050506040513d601f19601f8201168201806040525081019061021a9190610e9c565b6002546040516370a0823160e01b81523060048201529192506000916001600160a01b03909116906370a0823190602401602060405180830381865afa158015610268573d6000803e3d6000fd5b505050506040513d601f19601f8201168201806040525081019061028c9190610e9c565b919491935090915050565b6001546002546040516370a0823160e01b81523060048201526000926001600160a01b03908116921690839083906370a0823190602401602060405180830381865afa1580156102eb573d6000803e3d6000fd5b505050506040513d601f19601f8201168201806040525081019061030f9190610e9c565b6002546040516370a0823160e01b81523060048201529192506000916001600160a01b03909116906370a0823190602401602060405180830381865afa15801561035d573d6000803e3d6000fd5b505050506040513d601f19601f820116820180604052508101906103819190610e9c565b9050836001600160a01b0316866001600160a01b031614806103b45750826001600160a01b0316866001600160a01b0316145b6103fd5760405162461bcd60e51b8152602060048201526015602482015274496e76616c696420746f6b656e206164647265737360581b60448201526064015b60405180910390fd5b836001600160a01b0316866001600160a01b03160361042a576104208282610ecb565b9695505050505050565b6104208183610ecb565b61043c610d2d565b6104466000610d5a565b565b600081116104685760405162461bcd60e51b81526004016103f490610eed565b6002546040516370a0823160e01b815230600482015260009161054e9184916001600160a01b0316906370a0823190602401602060405180830381865afa1580156104b7573d6000803e3d6000fd5b505050506040513d601f19601f820116820180604052508101906104db9190610e9c565b6001546040516370a0823160e01b81523060048201526001600160a01b03909116906370a0823190602401602060405180830381865afa158015610523573d6000803e3d6000fd5b505050506040513d601f19601f820116820180604052508101906105479190610e9c565b6000610daa565b6002546040516323b872dd60e01b81529192506001600160a01b0316906323b872dd9061058390339030908790600401610f15565b6020604051808303816000875af11580156105a2573d6000803e3d6000fd5b505050506040513d601f19601f820116820180604052508101906105c69190610f39565b5060015460405163a9059cbb60e01b8152336004820152602481018390526001600160a01b039091169063a9059cbb906044016020604051808303816000875af1158015610618573d6000803e3d6000fd5b505050506040513d601f19601f8201168201806040525081019061063c9190610f39565b50336001600160a01b03167f8e9e76bc26b871e7fa5d1dcc71d4fe0a57e5abb4195b6885b9e09249f85af92183836040516106a29291909182526020820152606060408201819052600990820152685377617042666f724160b81b608082015260a00190565b60405180910390a25050565b6106b6610d2d565b6000821180156106c65750600081115b6107045760405162461bcd60e51b815260206004820152600f60248201526e496e76616c696420616d6f756e747360881b60448201526064016103f4565b6001546040516323b872dd60e01b81526001600160a01b03909116906323b872dd9061073890339030908790600401610f15565b6020604051808303816000875af1158015610757573d6000803e3d6000fd5b505050506040513d601f19601f8201168201806040525081019061077b9190610f39565b506002546040516323b872dd60e01b81526001600160a01b03909116906323b872dd906107b090339030908690600401610f15565b6020604051808303816000875af11580156107cf573d6000803e3d6000fd5b505050506040513d601f19601f820116820180604052508101906107f39190610f39565b50604080518381526020810183905233917fac1d76749e5447b7b16f5ab61447e1bd502f3bb4807af3b28e620d1700a6ee4591016106a2565b610834610d2d565b6001546040516370a0823160e01b81523060048201526000916001600160a01b0316906370a0823190602401602060405180830381865afa15801561087d573d6000803e3d6000fd5b505050506040513d601f19601f820116820180604052508101906108a19190610e9c565b6002546040516370a0823160e01b81523060048201529192506000916001600160a01b03909116906370a0823190602401602060405180830381865afa1580156108ef573d6000803e3d6000fd5b505050506040513d601f19601f820116820180604052508101906109139190610e9c565b90508184111580156109255750808311155b6109685760405162461bcd60e51b81526020600482015260146024820152734e6f7420656e6f756768206c697175696469747960601b60448201526064016103f4565b60015460405163a9059cbb60e01b8152336004820152602481018690526001600160a01b039091169063a9059cbb906044016020604051808303816000875af11580156109b9573d6000803e3d6000fd5b505050506040513d601f19601f820116820180604052508101906109dd9190610f39565b5060025460405163a9059cbb60e01b8152336004820152602481018590526001600160a01b039091169063a9059cbb906044016020604051808303816000875af1158015610a2f573d6000803e3d6000fd5b505050506040513d601f19601f82011682018060405250810190610a539190610f39565b50604080518581526020810185905233917f96cd817c6329656790ef8fba7675405193677d39619571282f5e21f3a98cd059910160405180910390a250505050565b60008111610ab55760405162461bcd60e51b81526004016103f490610eed565b6001546040516370a0823160e01b8152306004820152600091610b9b9184916001600160a01b0316906370a0823190602401602060405180830381865afa158015610b04573d6000803e3d6000fd5b505050506040513d601f19601f82011682018060405250810190610b289190610e9c565b6002546040516370a0823160e01b81523060048201526001600160a01b03909116906370a0823190602401602060405180830381865afa158015610b70573d6000803e3d6000fd5b505050506040513d601f19601f82011682018060405250810190610b949190610e9c565b6001610daa565b6001546040516323b872dd60e01b81529192506001600160a01b0316906323b872dd90610bd090339030908790600401610f15565b6020604051808303816000875af1158015610bef573d6000803e3d6000fd5b505050506040513d601f19601f82011682018060405250810190610c139190610f39565b5060025460405163a9059cbb60e01b8152336004820152602481018390526001600160a01b039091169063a9059cbb906044016020604051808303816000875af1158015610c65573d6000803e3d6000fd5b505050506040513d601f19601f82011682018060405250810190610c899190610f39565b50336001600160a01b03167f8e9e76bc26b871e7fa5d1dcc71d4fe0a57e5abb4195b6885b9e09249f85af92183836040516106a292919091825260208201526060604082018190526009908201526829bbb0b820b337b92160b91b608082015260a00190565b610cf7610d2d565b6001600160a01b038116610d2157604051631e4fbdf760e01b8152600060048201526024016103f4565b610d2a81610d5a565b50565b6000546001600160a01b031633146104465760405163118cdaa760e01b81523360048201526024016103f4565b600080546001600160a01b038381166001600160a01b0319831681178455604051919092169283917f8be0079c531659141344cd1fd0a4f28419497f9722a3daafe3b4186f6b6457e09190a35050565b6000808511610dcb5760405162461bcd60e51b81526004016103f490610eed565b8115610e0057610ddb8585610f5b565b610de58486610f74565b610def9190610ecb565b610df99084610f8b565b9050610e29565b83610e0b8685610f8b565b610e158587610f74565b610e1f9190610ecb565b610df99190610f8b565b949350505050565b600060208284031215610e4357600080fd5b81356001600160a01b0381168114610e5a57600080fd5b9392505050565b600060208284031215610e7357600080fd5b5035919050565b60008060408385031215610e8d57600080fd5b50508035926020909101359150565b600060208284031215610eae57600080fd5b5051919050565b634e487b7160e01b600052601160045260246000fd5b600082610ee857634e487b7160e01b600052601260045260246000fd5b500490565b6020808252600e908201526d125b9d985b1a5908185b5bdd5b9d60921b604082015260600190565b6001600160a01b039384168152919092166020820152604081019190915260600190565b600060208284031215610f4b57600080fd5b81518015158114610e5a57600080fd5b80820180821115610f6e57610f6e610eb5565b92915050565b8082028115828204841417610f6e57610f6e610eb5565b81810381811115610f6e57610f6e610eb556fea2646970667358221220a97b01b83e51b841153407217994d1ff0f78804256b5c12f58e5a915b47c9e8464736f6c63430008160033",
  "devdoc": {
    "errors": {
      "OwnableInvalidOwner(address)": [
        {
          "details": "The owner is not a valid owner account. (eg. `address(0)`)"
        }
      ],
      "OwnableUnauthorizedAccount(address)": [
        {
          "details": "The caller account is not authorized to perform an operation."
        }
      ]
    },
    "events": {
      "LiquidityAdded(address,uint256,uint256)": {
        "params": {
          "amountA": "The amount of tokenA added to the liquidity pool.",
          "amountB": "The amount of tokenB added to the liquidity pool.",
          "provider": "The address of the provider who adds liquidity."
        }
      },
      "LiquidityRemoved(address,uint256,uint256)": {
        "params": {
          "amountA": "The amount of tokenA removed from the liquidity pool.",
          "amountB": "The amount of tokenB removed from the liquidity pool.",
          "provider": "The address of the provider who removes liquidity."
        }
      },
      "Swapped(address,uint256,uint256,string)": {
        "params": {
          "amountIn": "The amount of input token (either tokenA or tokenB) that was swapped.",
          "amountOut": "The amount of output token (either tokenA or tokenB) received after the swap.",
          "direction": "A string that indicates the swap direction.  (\"SwapAforB\" for tokenA to tokenB swap, \"SwapBforA\" for tokenB to tokenA swap).",
          "user": "The address of the user who performs the swap."
        }
      }
    },
    "kind": "dev",
    "methods": {
      "addLiquidity(uint256,uint256)": {
        "details": "This function allows the owner to add liquidity to the pool.  Both `amountA` and `amountB` must be greater than zero.",
        "params": {
          "amountA": "**_amountA** The amount of tokenA to add.",
          "amountB": "**_amountB** The amount of tokenB to add."
        }
      },
      "constructor": {
        "details": "This constructor initializes the contract with the addresses of tokenA and tokenB to be used in the DEX. It also sets the owner of the contract as the account deploying the contract.",
        "params": {
          "_tokenA": "The address of the tokenA contract that will be used in the DEX.",
          "_tokenB": "The address of the tokenB contract that will be used in the DEX."
        }
      },
      "getPrice(address)": {
        "details": "This function calculates the price of a token by dividing the  reserve of the other token by the reserve of the requested token.",
        "params": {
          "_token": "**_token** The address of the token for which to get the price."
        },
        "returns": {
          "_0": "price The calculated price of the token."
        }
      },
      "getReserves()": {
        "details": "This function returns the balance of tokenA and tokenB in the contract. It is a view function and does not modify the state.",
        "returns": {
          "_0": "reserveA  The current balance of tokenA in the contract.",
          "_1": "reserveB  The current balance of tokenB in the contract."
        }
      },
      "owner()": {
        "details": "Returns the address of the current owner."
      },
      "removeLiquidity(uint256,uint256)": {
        "details": "This function allows the owner to remove liquidity from the pool.  The amount of tokens removed cannot exceed the pool's reserves.",
        "params": {
          "amountA": "**_amountA** The amount of tokenA to remove.",
          "amountB": "**_amountB** The amount of tokenB to remove."
        }
      },
      "renounceOwnership()": {
        "details": "Leaves the contract without owner. It will not be possible to call `onlyOwner` functions. Can only be called by the current owner. NOTE: Renouncing ownership will leave the contract without an owner, thereby disabling any functionality that is only available to the owner."
      },
      "swapAforB(uint256)": {
        "details": "This function allows users to swap tokenA for tokenB.  `amountAIn` must be greater than zero.",
        "params": {
          "amountAIn": "**_amountAIn** The amount of tokenA to swap."
        }
      },
      "swapBforA(uint256)": {
        "details": "This function allows users to swap tokenB for tokenA.  `amountBIn` must be greater than zero.",
        "params": {
          "amountBIn": "**_amountBIn** The amount of tokenB to swap."
        }
      },
      "transferOwnership(address)": {
        "details": "Transfers ownership of the contract to a new account (`newOwner`). Can only be called by the current owner."
      }
    },
    "version": 1
  },
  "userdoc": {
    "events": {
      "LiquidityAdded(address,uint256,uint256)": {
        "notice": "Emitted when liquidity is added to the pool."
      },
      "LiquidityRemoved(address,uint256,uint256)": {
        "notice": "Emitted when liquidity is removed from the pool."
      },
      "Swapped(address,uint256,uint256,string)": {
        "notice": "Emitted when a swap occurs between tokenA and tokenB."
      }
    },
    "kind": "user",
    "methods": {
      "addLiquidity(uint256,uint256)": {
        "notice": "Add liquidity to the pool. Only accessible by the owner."
      },
      "constructor": {
        "notice": "Constructor for the SimpleDEX contract."
      },
      "getPrice(address)": {
        "notice": "Get the price of a token in terms of the other token."
      },
      "getReserves()": {
        "notice": "Retrieves the current reserves of tokens held by the contract."
      },
      "removeLiquidity(uint256,uint256)": {
        "notice": "Remove liquidity from the pool. Only accessible by the owner."
      },
      "swapAforB(uint256)": {
        "notice": "Swap TokenA for TokenB. User sends tokenA to receive tokenB."
      },
      "swapBforA(uint256)": {
        "notice": "Swap TokenB for TokenA. User sends tokenB to receive tokenA."
      }
    },
    "version": 1
  },
  "storageLayout": {
    "storage": [
      {
        "astId": 8,
        "contract": "contracts/SimpleDex.sol:SimpleDex",
        "label": "_owner",
        "offset": 0,
        "slot": "0",
        "type": "t_address"
      },
      {
        "astId": 264,
        "contract": "contracts/SimpleDex.sol:SimpleDex",
        "label": "tokenA",
        "offset": 0,
        "slot": "1",
        "type": "t_contract(IERC20)225"
      },
      {
        "astId": 267,
        "contract": "contracts/SimpleDex.sol:SimpleDex",
        "label": "tokenB",
        "offset": 0,
        "slot": "2",
        "type": "t_contract(IERC20)225"
      }
    ],
    "types": {
      "t_address": {
        "encoding": "inplace",
        "label": "address",
        "numberOfBytes": "20"
      },
      "t_contract(IERC20)225": {
        "encoding": "inplace",
        "label": "contract IERC20",
        "numberOfBytes": "20"
      }
    }
  }
}